:100000000C94BF080C94E7080C94E7080C94E708DC
:100010000C94E7080C94E7080C94E7080C94E708A4
:100020000C94E7080C94E7080C94011D0C94701DC7
:100030000C94E7080C94E7080C94E7080C94E70884
:100040000C94E7080C94E7080C94E7080C94E70874
:100050000C94E7080C94E7080C94E7080C94A21F92
:100060000C94E7080C94E7080C94E7080C94E70854
:100070000C94E7080C94E7080C94E7080C94E70844
:100080000C94E7080C94E7080C94E7080C94E70834
:100090000C94E7080C94E7080C94E7080C94E70824
:1000A0000C94E7080C94E7080C94E7084275646721
:1000B000657400536176652F4C6F61640053746101
:1000C0006469756D004669726520446570740050FE
:1000D0006F6C6963652044657074005061726B00D9
:1000E000506F776572706C616E7400496E647573E1
:1000F000747269616C00436F6D6D65726369616CE8
:10010000005265736964656E7469616C00506F7745
:1001100065726C696E6500526F61640042756C6C4B
:10012000646F7A657200446563004E6F76004F63BA
:10013000740053657000417567004A756C004A751C
:100140006E004D617900417072004D61720046652C
:1001500062004A616E00010D050B070E03040106E3
:100160000C020A090B080102030102030103010248
:10017000030202010301000100050101020900045C
:1001800000080307060A00004908B400BEF67B7A9F
:10019000A59455B848002944442A15A00B420050A4
:1001A00003020008259076BA595CC59EC53892E6D0
:1001B000F33A73BAE59077BA773A084008502A4480
:1001C0001CE08852E508568E77B677B8728CD6BA9E
:1001D000739E739272AEB7B6E95C64AAB7B4929C90
:1001E000BEB6D6B656AAD79276EE77B47138E9483D
:1001F000B6AEB6AAB6F6B5B4B548E59C694C91243E
:10020000642E5400001C44000EAE9ABA0E8C2EAE22
:100210000ECE56D0553B93B44144415197B4494416
:1002200017B61AB60AAAD6D3766717900F389A8CE3
:1002300016AE16BA16F615B4B52B1C5E6B4C4948B3
:10024000C95A540056E2D5F08D14A1C881CFD9F116
:10025000AF2000F0F89C8E8783878E9CF8F000001A
:10026000FEFF0303030303070EFCF80000FEFF0379
:1002700003030303070EFCF80000FFFF000000006B
:10028000000000FFFF0000FEFF8383838383C7EE2F
:100290007C380000F8FC0E07030303070EFCF8008F
:1002A000003F7FE0C08080C0E07F3FFFFF01010191
:1002B00001010101FFFF0000FFFF0C0C0C0C1C3EB4
:1002C00077E3C100007FFFC0C0C0C0C0E0703F1F27
:1002D00000001F3F70E0C0C0C0E0703F1F00007F03
:1002E000FFC1C1C1C1C1E3773E1C00001F3F70E0E8
:1002F000C0C0C0E0703F1F000000000001FFFF0110
:10030000000000627920406A616D657368686F77EC
:100310006172640000FE02FA0AEAEAEAEAEAEADA4C
:10032000DAEAEAEAEAEAEA0AFA0AEAEAEA0AFA3275
:10033000DAEAEAEAEAEAEAEAEAEAEA0AFA0AEAEADD
:10034000EAEAEAEAEAEAEAEAEA1AF262B2DAEAEAA5
:10035000EAEAEAEAEADAB262C202FE0000FF00FF5D
:1003600000FFFFFF00FE405F5F40FE00FFFFFF0059
:10037000FF00FFFFFF00FF00FFFFFF007E42424241
:1003800042424242FF00FFFFFF38BABA7AF8FFBF8D
:100390003FC0FF00FFFFFF007E427E00FFFFFF0027
:1003A000FF00FF0000FF801F10171717101F00002D
:1003B00000001F10171717101F10F737D7505F5680
:1003C0005D5B17F717D717F7175757D05F5017F719
:1003D00017D09F719FD017F717101F060D1B171707
:1003E00017171717171B0D060380FF00FFFEFDFBF5
:1003F000F6ECD8B060C080000000000000000000F3
:1004000000007FC0BFA0AFA9A9A989FF80BF80FF5E
:1004100001FF80BF80FF010103FE81BF81FE030158
:1004200000000000000000000080C060B0D8ECF6C2
:10043000FBFDFEFFFFFFFFFFFFFFFFFFFFFEFDFBDA
:10044000FAFAFAFAFAFAFAFAFAFAFAFAFAFAFAFA0C
:10045000FAFAFAFAFAFAFAFAFAFAFAFAFAFAFAFAFC
:10046000FAFAFAFAFAFAFAFAFAFAFAFAFAFAFAFAEC
:10047000FBFDFEFFFFFFFFFFFFFFFFFFFFFFFFFF93
:10048000FFFFFFFFFFFFFFFFFFFFFFFFFFFFFFFF7C
:10049000FFFFFFFFFFFFFFFFFFFFFFFFFFFFFFFF6C
:1004A000FFFFFFFFFFFFFFFFFF1F0000FFFFFFFF3A
:1004B000FFFFFFFFFFFFFFFFFFFFFF7F7F7F3F3F4C
:1004C0003F7FFFFFFF7F7FFFFFFFFFFFFFFFFFFF7C
:1004D000FFFFFFFFFFFFFFFFFFE00000FFFFFFFF49
:1004E000FFFFFFFFFFFFFFFFFFFF80000000000096
:1004F000000000000000000001030F7F7F7F7FFFEE
:10050000FFFFFFFF7F7F3F3F3F1F0000FFFFFFFF19
:10051000FFFFFFFFFFFFFFFFFFFFFFFFFEFEFCF8F7
:10052000F08000000000000000E0F0F8FCFCFCF8A7
:10053000F8F8F8F8F8FCFCFCF8F00000FFFFFFFF0B
:10054000FFFFFFFFFFFFFFFFFFFFFFFFFFFFFFFFBB
:100550001F0300000000000000070F0F1F3FFFFFF8
:10056000FFFFFFFFFFFFFFFFFF000000FFFFFFFF98
:10057000FFFFFFFFFFFFFFFFFFFFFFFFFFFFFFFF8B
:10058000FFFEFEFCFCFCFCFCFCFCFCFCFCFEFFFF9C
:10059000FFFFFFFFFFFFFFFFFF1F000000F0F8FC61
:1005A000FCFCFEFEFEFCFCFCFCFCFCFEFEFEFEFE7B
:1005B000FEFEFEFCF8F8F8F8F8F8F8F8FCFCFCFC95
:1005C000FEFEFEFEFEFEFEFEFCF8C000000081C343
:1005D000E3E3E3E3E3E3E3C7070FFFFFFFFFFFFF0F
:1005E000FFFFFFFFFFFFFFFFFFFFFFFFFFFFFFFF1B
:1005F000FFFFFFFFFFFFFFFFFFFF0F0000001F3F98
:100600007F7F7F7F3F3F3F0F80C0FFFFFFFFFFFFE8
:10061000FFFFFFFFFFFFFFFFFFFF1F0F0F0F0F0F7A
:100620000F0F070707030383C3C18000000000C04A
:10063000F8FCFEFEFEFFFFFFFFFFFFFFFFFFFFFFD7
:10064000FFFFFFFFFFFFFFFFFFFFFFFCFCF8F8F8D5
:10065000F8F8FCFEFEFFFFFFFFFFFF00000007FFB2
:10066000FFFFFFFFFFFFFFFFFFFFFFFFFFFFFFFF9A
:10067000FFFFFFFFFFFFFFFFFFFFFFFFFFFFFFFF8A
:10068000FFFFFFFFFFFFFFFFFF070000003C7F7F32
:100690007F7F7F3F3F3F3F3F3F3F3F3F1F1F0F0F4A
:1006A00007070F0F0F0F3F3F7F7F3F3F3F1F1F1F6A
:1006B0001F1F3F7F7F7F7F7F3F1E0000FFFFFFFFE9
:1006C000FFFFFFFFFFFFFFFFFFFF3F0F0701C0E03E
:1006D000F8FCFEFFFFFFFFFFFFFFFFFFFFFFFFFF35
:1006E000FFFFFFFFFFFFFFFFFFFFFFFFFFFFFFFF1A
:1006F000FFFFFFFFFFFFFFFFFFFFE0C08000030FD2
:100700001F3F3F7FFFFFFFFFFFFFFFFFFFFFFFFFD9
:10071000FFFFFFFFFFFFFFFFFFFFFFFFFFFFFFFFE9
:10072000FFFFFFFFFFFFFFFFFFFFFFFFFFFFFEFCDD
:10073000F8F8F0E0C0800103070F3FFFFFFFFFFF65
:10074000FFFFFFFFFFFFFFFFFFFFFFFFFFFFFFFFB9
:10075000FFFFFFFFFFFFFFFFFFFFFFFFFFFFFFFFA9
:10076000FFFFFFFFFFFFFEF8E000000003FFFFFFB9
:10077000FFFFFFFFFFFFFFFFFFFFFFFFFFFFFFFF89
:10078000FFFFFFFFFFFFFFFFFFFFFFFFFFFFFFFF79
:10079000FFFFFFFFFFFFFFFF3F00000000FFFFFF25
:1007A000FFFFFFFFFFFFFFFFFFFFFFFFFFFFFFFF59
:1007B000FFFFFFFFFFFFFFFFFFFFFFFFFFFFFFFF49
:1007C000FFFFFFFF3F0F07000080C0F8FEFFFFFFA5
:1007D000FFFFFFFFFFFFFFFFFFFFFFFF4C616B65A8
:1007E0000049736C616E64005269766572003E0068
:1007F0003C000000000000640003034064000303A9
:10080000436400030346B80B0404A0320003034909
:10081000F40103034CF40103037CB80B0404A400AB
:100820000003030000000404001C0117010D010176
:1008300001F600EB00E000DB00CF00C500BD00B317
:1008400000AC0052014E014A01460142013E013A0C
:1008500001360132012E012A012601466972652006
:100860007265706F7274656421004F6666004F6E2A
:10087000004175746F204275646765743A004E6577
:10088000772043697479004C6F61642043697479FF
:100890000053617665204369747900436173682071
:1008A000666C6F7700526F6164206275646765746F
:1008B00000506F6C696365206275646765740046FB
:1008C0006972652062756467657400546178657348
:1008D00020636F6C6C65637465640054617820728A
:1008E0006174652020202020202020203C20202012
:1008F00025203E00427564676574207265706F72D2
:100900007420666F7200080B0002020200000904E6
:10091000000001020200000524001001052401016D
:1009200001042402060524060001070581031000C6
:100930004009040100020A0000000705020240000D
:1009400000070583024000000403090412010002AD
:10095000EF02014041233680000101020301417290
:100960006475696E6F204C4C430041726475696E0A
:100970006F204C656F6E6172646F000000000000B4
:10098000000000FFFFDDFFFFFFEFFFFFFDFFDFFFC8
:10099000FBFFFFFFFFFDFFBFFFFFFFFFFFFFF7FFB5
:1009A000BFFDFF0111110101111101FF00000066DF
:1009B000000000FF07030161111101011111016124
:1009C00001030701101000060080C0FFC080000670
:1009D00010100001111101811191015100000066F8
:1009E0000000000110110001101000FF000000665F
:1009F0000000145100010081008014FFFFFFFFFF81
:100A0000FFFFFF88888222200008888880A2222099
:100A10002000888882222222200008888A0222223E
:100A20000008084115510541155105FF00550066A4
:100A300000AA00FF074309611591054115510561A1
:100A400009A3074114510026008AC0FFC095004643
:100A500010520041155105C115D1055100550066D0
:100A600000AA004114510441145004FF00550066CF
:100A700000AA14510441008100841482929282825F
:100A800092928200FF0000660000FF8A8A0A0A2A0A
:100A90002A0A0A888000FF00FF0008FFFFFFFFFF0F
:100AA000FFFFFF0551154105511541FF00AA0066E2
:100AB000005500FF0793016511150105519501656A
:100AC00001530705501240061085C0FFC08A20065A
:100AD00050114005511541855195415100AA0066BC
:100AE0000055000550154005501440FF00AA00664F
:100AF0000055145140030081028014007E662A4C88
:100B00006E7E00011111FE01FE1101F50A0A0A6E46
:100B10000A0A0A7DF7DEFBFEB7FDDFFFFFFFFFFFDE
:100B2000FFFFFFF5F5F58181F5F5F5FFFFFF00FF0C
:100B300000FFFFFFFFFF01FD05F5F5F5F5F505FDEC
:100B400001FFFFF5F5F58083F0FFFFFFFFFFF08366
:100B500080F5F5F5F5F505FD05F5F5F5F5F504FF79
:100B600000FFFFF5F5F5F4F7F4F5F5FFFFFF00FFE3
:100B700004F5F5F5F5F504FF04F5F5FF55FFFDFF68
:100B8000FDFFFDFFFDFFFDFFFDFFFDFFFDFFFDFF85
:100B9000FDFF55FF55FFFDFFFDFFFDFFFDFFFDFFC5
:100BA000FDFFFDFFFDFFFDFFFDFF55FF55FFFDFFB5
:100BB000FDFFFDFFFDFFFDFFFDFFFDFFFDFFFDFF55
:100BC000FDFF55FF01E9E5315D9D31E5A901FFFF1D
:100BD00001BDE5D14965FD359D5901FF0FF7FB01C9
:100BE000FDFDFDFD11D7D737F717D7D737F1FDFD3D
:100BF000FDFD0180E0F0F0F8FEEEFFFF55FFFFFF86
:100C0000FFFFFFFFFF81EDED93FFFFFFFFFFFFFF02
:100C1000FFFF55FF55FFFFFFFFFFFFFFFFC3BDBDF8
:100C2000DBFFFFFFFFFFFFFFFFFF55FF55FFFFFF4C
:100C3000FFFFFFFFFFBD81BDFFFFFFFFFFFFFFFFC6
:100C4000FFFF55FF18DBDA1B9A5A1BDBBD66C3CBCF
:100C500066BD5B981A59D81B9A5A18FF003F5F600F
:100C60006F6F6F6F682EAEAFAFA82B6B6C6F6F6F2F
:100C7000AFCFE0FFFEFCD8F8F0E080FF55FF7FFF2C
:100C80007FFF7FFF7FFF7FFF7FFF7FFF7FFF7FFF74
:100C90007FFF55FF55FF7FFF7FFF7FFF7FFF7FFFB8
:100CA0007FFF7FFF7FFF7FFF7FFF55FF55FF7FFFA8
:100CB0007FFF7FFF7FFF7FFF7FFF7FFF7FFF7FFF44
:100CC0007FFF55FF0027154F7E664B526700FFFFE1
:100CD00000775E7C4D26174D7E7600FF81A581A1B1
:100CE0008581FFC0CFD0D7D7D7E7F0FF8185A18519
:100CF000A181FF01070F1F1B3F7FFFFFFFC33DA522
:100D0000C56DF35BFD00FEFEFEFE0E6E6E9EFEFEEA
:100D1000FEFE00FF1FEF57FB01FD7D7177777777B0
:100D200077773B415DDDDDDD5D9DC1FF017D7D01AF
:100D3000EDED6DADA1BFBFA1ADAD61FFFFFF0155F1
:100D4000A901FFFFFFFFFFFFFFFFFFFFFFFFFFFF07
:100D5000FFFFFFFFFFFFFFFFFFFFFFFF07FB01FD9F
:100D60007D7D7D7D7D7D7D7D7D7D415F5F5F5F5F85
:100D70005FDF1FFF7F3D1F1F0F0701FF0156FF555C
:100D8000FFD5FF75BFC05FDF5FDF5CDF5FDC5FDF6C
:100D90005F9FC0FF00FF95FF24FE00FFFFC3BDBDA6
:100DA000DBFFFFFF00FEFEFEE0EF0FFFFFFF07FB94
:100DB00001FEFFFFFFBD81BDFFFFFFFE01FF26DA41
:100DC000DA26FFFFFFFFFFFFFFFFFFFFFFFFFFFF31
:100DD000FFFFFFFFFFFFFFFFFFFFFFFF00FF54FECE
:100DE00000FFFFFF03DBDBFBFF037B7B87FFFFFFD6
:100DF00000FF00FFFFFFFFFFFFFFFFFF809DAFB77A
:100E00009BBD96BF95BF95BF95BFD5EF85B3B5B6D2
:100E1000B6B680FF003F5A6F557B54557D55755DC2
:100E2000756D65696C6F6F6FAFCFE0FF9F6F6C9BE7
:100E3000F7EEEDEBEBEBEBEBF3FB0576475F59568B
:100E40005619FFFFFFFFFFFFFFFFFFFFFFFFFFFF41
:100E5000FFFFFFFFFFFFFFFFFFFFFFFF003F556F9B
:100E60007037171717577737171717577777574769
:100E7000509FC0FFFFFFFFFFFFFFFFFF01FDFD7D54
:100E80009DED05F9AD56AA56AA56AA55F905ED05E8
:100E9000F9AD56AA56AA56AA55FB07FF016D6D6D0E
:100EA0006D45456D01F79BFD15D5555DD555555DD6
:100EB0005555D55D55D515FD9BF70FFFFFFFFFFF7E
:100EC000FFFFFFFFFFFFFFFFFFFFFFFFFFFFFFFF32
:100ED000FFFFFFFFFFFFFFFFFFFFFFFFFFFFFFFF22
:100EE000FFFFFFFFFFFFFFFFFFFFFFFFFFFFFFFF12
:100EF000FFFFFFFFFFFFFFFFFFFFFFFF007FC0BF00
:100F00007FFFF8FBF6EDEAED6AADCAC5BB7CFFFCDE
:100F1000FBF6EDEA6DAACDEA05FBFCFF01250125F4
:100F2000012501FF00FF24FF00FF00000382424271
:100F30004282030000FF00FF24FF00FFFFFFFFFFCE
:100F4000FFFFFFFFFFFFFFFFFFFFFFFFFFFFFFFFB1
:100F5000FFFFFFFFFFFFFFFFFFFFFFFFFFFFFFFFA1
:100F6000FFFFFFFFFFFFFFFFFFFFFFFFFFFFFFFF91
:100F7000FFFFFFFFFFFFFFFFFFFFFFFFFF00EFF798
:100F80009BFC00FEFEFECE46129EDEFEFEFE0076BE
:100F900056768EFE8F7757778EFE00E380A280A272
:100FA000002280FF00FF49FF00FF0101818385854A
:100FB0008583810101FF00FF49FF00FFFFFFFFFF65
:100FC000FFFFFFFFFFFFFFFFFFFFFFFFFFFFFFFF31
:100FD000FFFFFFFFFFFFFFFFFFFFFFFFFFFFFFFF21
:100FE000FFFFFFFFFFFFFFFFFFFFFFFFFFFFFFFF11
:100FF000FFFFFFFFFFFFFFFFFFFFFFFFFF005F4F50
:10100000565B5C555D555D55555D556D7579605DFB
:10101000555D637F635D555D637F00FF007E707784
:10102000747404FCE0DFB27F505754745754547406
:10103000545457745457507FB2DFE0FFFFFFFFFF57
:10104000FFFFFFFFFFFFFFFFFFFFFFFFFFFFFFFFB0
:10105000FFFFFFFFFFFFFFFFFFFFFFFFFFFFFFFFA0
:10106000FFFFFFFFFFFFFFFFFFFFFFFFFFFFFFFF90
:10107000FFFFFFFFFFFFFFFFFFFFFFFF016D686A3C
:101080000A7801FFC1D5D41455411F212DEDED0D76
:101090007D7D01FF80B6B680B6B680007E7E007E84
:1010A000666600FFC11D5D5D407E000757575750C3
:1010B00002FAF8FFC01E5E401EDEC0FF8F773B1DA8
:1010C0007E81FFFF9F633D1E7987FFFF837D1B3B72
:1010D000778FFFFF9F673B377BA39FFFFFFFFFFFDC
:1010E000FFFFFFFFFFFFFFFFFFFFFFFFFFFFFFFF10
:1010F000FFFFFFFFFFFFFFFFFFFFFFFFDFA3ABA32C
:10110000AFCFB7FF1F07016A01071FFFFFF5F5000B
:10111000F5F5FFFFEF07C3012307EFFFFF002A806C
:101120002A00FFFF031D021D1E1F1FFFFFE7A389EB
:10113000CFEFFFFFF3E915E9F3FFFFFFC0A1130BAA
:1011400085C0FFFFFF050105DBE7FFFFCF971B63AE
:10115000A7CFFF0070777774777001FFFFB7AB01FF
:10116000ABDBFFFFFFFFFFFFFFFFFFFFFFFFFFFF07
:10117000FFFFFFFFFFFFFFFFFFFFFF001F20112406
:101180001FBECFEFDAE0DEBFCDBF11E0A0E0B1E0DF
:10119000E6EBFCE502C005900D92A832B107D9F745
:1011A0002AE0A8E2B1E001C01D92A532B207E1F742
:1011B00018E0CFEBD8E004C02197FE010E94532E27
:1011C000CE3BD107C9F70E9434200C94592E0C94C1
:1011D000000090E02091240A821B910927FD93953D
:1011E00081319105B8F470E02091230A621B7109E6
:1011F00027FD73956930710568F441E1469F9001C0
:10120000479F300D11242657364F820F931F23E33B
:10121000FC01208308954F925F926F927F928F928C
:101220009F92AF92BF92CF92DF92EF92FF920F9375
:101230001F93CF93DF93803891050CF091C0FB0191
:10124000E00FF11D1E161F060CF08AC060347105F8
:101250000CF086C0DB0177FF04C0AA27BB27A61BC2
:10126000B70BA770BB27EB0177FD2796E3E0D59579
:10127000C795EA95E1F777FF07C0219768E070E02E
:10128000FB01EA1BFB0BDF0130E006950695069596
:10129000802E912C8A01AE015695542F44275795E4
:1012A0004795480F591F46575A4FBE01E0E8F0E0F6
:1012B0007F01E81AF90A88E090E03C016A1A7B0A8B
:1012C0006F3FFFEF7F070CF43BC090E080E05A01D6
:1012D000E0E8AE0EB11C6F3F760709F452C0FC0186
:1012E000E00FF11FE4916A01C80ED91EF0E02F0152
:1012F0000A2E01C0440C0A94EAF7F60150804528F2
:1013000040821097B1F06730710599F0F801E80F4D
:10131000F91FE4916501C80ED91EF0E02F01062CDB
:1013200002C0559447940A94E2F7F601508045288C
:1013300040820196821793071CF4E816F90659F6C5
:101340006F5F7F4F020F131F40585F4FCB018C1B05
:101350009D0B8815990524F46830710509F0B0CF0C
:10136000DF91CF911F910F91FF90EF90DF90CF9081
:10137000BF90AF909F908F907F906F905F904F90B5
:101380000895109709F0C2CFD4CFEAE8F5E0A0E0C5
:10139000B8E000800EBC8111012C1197A0FDFDCF9B
:1013A0000192B9F70DB40895FC0180918905882355
:1013B00011F13FB7F89482E08093E9002091F200A8
:1013C000822F90E01816190614F481E090E088232B
:1013D00039F0289844E6409388054091F100408315
:1013E000222339F02091F200211103C02BE6209333
:1013F000E8003FBF08958FEF9FEF08952FB7F8944F
:1014000083E08093E9009091E800892F807295FF36
:1014100004C09091F20080E4891B2FBF0895809151
:10142000800581110DC082E080937C0584E080936B
:101430007D0510927F0510927E0581E080938005E6
:101440008CE795E00895CF93DF931F92CDB7DEB779
:101450006983DC01ED91FC910280F381E02D41E094
:1014600050E0BE016F5F7F4F09950F90DF91CF91E4
:10147000089583E08093E9008091F200882319F0B9
:101480008AE38093E80008950E94FE0990E00895A1
:10149000CF93DF931F92CDB7DEB7FC01848595858E
:1014A00097FD08C02FEF3FEF358724870F90DF911E
:1014B000CF910895CE0101960E94D409019719F4A5
:1014C000898190E0F3CF8FEF9FEFF0CF0F931F93C1
:1014D000CF93DF931F92CDB7DEB78C01FC018485DB
:1014E000958597FF0BC0CE0101960E94D409019704
:1014F00071F4898190E0F80195878487F8018485EB
:1015000095850F90DF91CF911F910F9108958FEFE7
:101510009FEFF1CFFC018485958597FD0BC09FB7A8
:10152000F89482E08093E9008091F2009FBF90E000
:10153000019608959FB7F89482E08093E900809126
:10154000F2009FBF90E00895409126055091270535
:10155000209124053091250542175307B4F490914A
:10156000E8009570E1F39091E80092FD19C0809336
:10157000F100809126059091270501968F73992798
:10158000892B19F48EEF8093E800809126059091C5
:1015900027050196909327058093260581E00895FD
:1015A00080E00895DF92EF92FF920F931F93CF9305
:1015B000DF93D82E8A01EB017B01E40EF51ECE15D8
:1015C000DF0559F0D7FE12C0FE0184910E94A40AE3
:1015D00021968111F4CF0FEF1FEFC801DF91CF915A
:1015E0001F910F91FF90EF90DF9008958881EECFCB
:1015F0000F931F93CF93DF931F92CDB7DEB782E097
:10160000898342E450E066E079E080E80E94D20AF3
:101610000E940F0ADC0112960D911C910115110513
:1016200089F0D801ED91FC910280F381E02DBE019B
:101630006F5F7F4FC801099597FD04C0F8010085D1
:101640001185ECCF89810F90DF91CF911F910F9180
:101650000895615030F02091F100FC012083019643
:10166000F8CF289884E68093880508953FB7F894CA
:1016700080912B0190912C01A0912D01B0912E0110
:1016800026B5A89B05C02F3F19F00196A11DB11DDD
:101690003FBFBA2FA92F982F8827BC01CD01620F19
:1016A000711D811D911D42E0660F771F881F991FD4
:1016B0004A95D1F708958F929F92AF92BF92CF92A1
:1016C000DF92EF92FF926B017C010E94360B4B017F
:1016D0005C01C114D104E104F104B9F00E94360B9D
:1016E000681979098A099B09683E7340810591054B
:1016F00080F321E0C21AD108E108F10888EE880ED3
:1017000083E0981EA11CB11CE4CFFF90EF90DF9006
:10171000CF90BF90AF909F908F9008958F929F929F
:10172000AF92BF92CF92DF92EF92FF920F931F93EF
:10173000CF93DF936C017B018A0180910E01882396
:1017400009F45CC080918905882309F457C0809111
:101750002B0580FF05C08091E00082608093E0004F
:10176000E801B12C8AEFA82E93E0892E2AE3922E6D
:10177000209711F4BB20D9F10E94FE0981110AC003
:10178000AA94AA20D9F161E070E080E090E00E9484
:101790005B0BEECF8C171D0611F00CF08C2F9FB752
:1017A000F8948092E9002091E80025FD02C09FBFD7
:1017B000DFCF282F30E0C21BD30BF701815020F080
:1017C00041914093F100FACFE20EF31EBB2021F0CD
:1017D0009092E800B12CEBCF8091E80085FDE7CF37
:1017E0009092E800BB24B394209709F3F3CF5D985F
:1017F00084E680932A05101611063CF081E090E003
:10180000F6019383828310E000E0C801DF91CF915D
:101810001F910F91FF90EF90DF90CF90BF90AF900E
:101820009F908F9008952D9A0895BC0190E080E0DC
:101830000C945B0B282F9FB19095907F669B9860CE
:101840001C9B9460922381E0921380E0089580387D
:101850009105BCF460347105A4F420E191E061FDD0
:1018600094E060FD990F62FD9295687F269FD001FC
:101870001124A80FA657BA4F8C91442319F0892B35
:101880008C93089590958923FBCFAF92BF92CF920E
:10189000DF92EF92FF920F931F93CF93DF9328E095
:1018A000829FC0011124C62F10E000E09C01255842
:1018B000364F6901F601E00FF11FD49187E3E82E5E
:1018C000F12CAC2EB12C4D2F4170D695B701C5012E
:1018D0000E94270C3FEFE31AF30A8FE3E816F104A6
:1018E00091F70F5F1F4FCF5F0830110519F7DF9198
:1018F000CF911F910F91FF90EF90DF90CF90BF900D
:10190000AF9008959B0143E0359527954A95E1F7FF
:1019100046E0429FF001439FF00D11249C0153E0EB
:10192000359527955A95E1F7E20FF31F73E0EE0F17
:10193000FF1F7A95E1F787708E0F9F2F911D6770BB
:1019400021E030E001C0220F6A95EAF7409181035F
:10195000ECE9F5E0413031F0ECE7F4E0423011F031
:10196000ECEBF6E0E80FF91FE491E22381E009F4E3
:1019700080E0089580FF07C090911E05992319F01B
:10198000915090931E0582FF07C090911F059923E7
:1019900019F0915090931F0581FF07C090911E058B
:1019A0009F3218F49F5F90931E0583FF07C08091BC
:1019B0001F058F3218F48F5F80931F05089582FFF3
:1019C00007C090912105992379F0915090932105BA
:1019D00083FF10C0809121056150770B8617170691
:1019E00031F41092210508959FEF960FEFCF8F5F8E
:1019F000809321050895CF93DF93EB01DA0125E071
:101A0000AC01249FC001259F900D1124FC01EC50D6
:101A1000F84F24918B50984FFC01849190911E05B2
:101A2000992311F140E350E0421B5109E92FE150A5
:101A3000FF0B91504E175F0714F490E3921B9883AD
:101A400090911F059923A9F020E330E0281B31096C
:101A5000692F6150770B2617370744F490E3981BE2
:101A60009C93DF91CF9108951882EACF91509C9377
:101A7000F8CF1C92F6CF2091000130910101C901ED
:101A80009695879520FF02C024EB92279093010141
:101A900080930001019708952F923F924F925F9299
:101AA0006F927F928F929F92AF92BF92CF92DF926E
:101AB000EF92FF920F931F93CF93DF93CDB7DEB7D3
:101AC00062970FB6F894DEBF0FBECDBF805290E094
:101AD000880F991FFC01EA57FE4F4491FC01E9571A
:101AE000FE4F749000912801209129012D836624D6
:101AF000639446FB222420F826242E8245FB3324BF
:101B000030F836243F8244FB442440F8462448867B
:101B100043FB552450F85624598642FB882780F908
:101B200086258A8741FB882780F986258B8772FA6C
:101B3000882780F986258C8785E0800F482E512CD8
:101B400084E0800F282E312C83E0800F282F30E096
:101B50003A83298382E0800F282F30E03C832B8357
:101B600088248394800E912C8D818D5FE82EF12C3A
:101B7000CD80C394C394D12CAD80A394B12C10E03C
:101B80009D81892F90E09A8B898B40954D83272DDD
:101B900022952695269523702D87372D32953695DB
:101BA00037703E87872D82958F708F87972D9695FA
:101BB00096959695988B70FEB1C041E0B8018989E1
:101BC0009A890E94270C41E0B801C5010E94270CA8
:101BD00041E0B801C6010E94270C41E0B801C701ED
:101BE0000E94270C4D81441F4427441FB40189895A
:101BF0009A890E94270C4E81B401C5010E94270CCE
:101C00004F81B401C6010E94270C41E0B401C70115
:101C10000E94270C48856B817C8189899A890E9462
:101C2000270C49856B817C81C5010E94270C4A8560
:101C30006B817C81C6010E94270C41E06B817C8115
:101C4000C7010E94270C4B8569817A8189899A890D
:101C50000E94270C4D81417069817A81C5010E94E3
:101C6000270C71FA442740F9462569817A81C6011B
:101C70000E94270C41E069817A81C7010E94270CEC
:101C8000472D4095441F4427441FB10189899A89F3
:101C90000E94270C4D8546254170B101C5010E9467
:101CA000270C4E8546254170B101C6010E94270CC4
:101CB00041E0B101C7010E94270C4F8546254170C4
:101CC000B20189899A890E94270C4889462541706A
:101CD000B201C5010E94270C4C85B201C6010E94C9
:101CE000270C41E0B201C70162960FB6F894DEBF3F
:101CF0000FBECDBFDF91CF911F910F91FF90EF905D
:101D0000DF90CF90BF90AF909F908F907F906F901B
:101D10005F904F903F902F900C94270C4D81441F63
:101D20004427441FB80189899A890E94270C4E8153
:101D3000B801C5010E94270C4F81B801C6010E945D
:101D4000270C41E0B801C7010E94270C4885B40167
:101D500089899A890E94270C4985B401C5010E948E
:101D6000270C4A85B401C6010E94270C41E0B4014A
:101D7000C7010E94270C4B856B817C8189899A89D8
:101D80000E94270C4D8141706B817C81C5010E94AE
:101D9000270C71FA442740F946256B817C81C601E6
:101DA0000E94270C41E06B817C81C7010E94270CB7
:101DB000472D4095441F4427441F69817A818989B2
:101DC0009A890E94270C4D854625417069817A8148
:101DD000C5010E94270C4E854625417069817A8194
:101DE000C6010E94270C41E069817A81C7010E94E7
:101DF000270C4F8546254170B10189899A890E9437
:101E0000270C488946254170B101C5010E94270C65
:101E10004C85B101C6010E94270C41E0B101C70108
:101E20000E94270C41E0B20189899A890E94270CFF
:101E300041E0B201C5010E94270C41E04ECF2F9234
:101E40003F924F925F926F927F928F929F92AF924A
:101E5000BF92CF92DF92EF92FF920F931F93CF9397
:101E6000DF9300D000D01F92CDB7DEB74B015C01ED
:101E70004983409329012093280181149104A104EE
:101E8000B10431F580E30E944C0D89818450809328
:101E9000290181E08D8384E20E944C0D8D818F5F4A
:101EA0000F900F900F900F900F90DF91CF911F9197
:101EB0000F91FF90EF90DF90CF90BF90AF909F90E9
:101EC0008F907F906F905F904F903F902F900895EC
:101ED0007C016B01B7FE07C0CC24DD247601C81855
:101EE000D908EA08FB0803E010E0312C8AE0482E0C
:101EF000512C612C712CC701B601A30192010E94E3
:101F0000DB2D222E39834A835B8380E3860F0E9478
:101F10004C0D809129018C8384508093290181E0AC
:101F2000830D8D83C22CD980EA80FB80015011097A
:101F3000C114D104E104F10469F4B7FEACCF8DE221
:101F40000E944C0D8C8188508093290133943394E6
:101F50003D82A1CF0115110561F48CE20E944C0D68
:101F60008C81885080932901339433943D8203E01F
:101F700010E03D80C0CFCF92DF92EF92FF920F939F
:101F80001F93CF93DF9300D000D01F92CDB7DEB761
:101F90008C01F62E6093290140932801009781F46B
:101FA00080E30F900F900F900F900F90DF91CF91E3
:101FB0001F910F91FF90EF90DF90CF900C944C0DFC
:101FC00097FF07C08DE20E944C0D84E08F0D809337
:101FD0002901CE0101967C01FC0130E020E08AE07D
:101FE000C82ED12C2F5F3F4FC801B6010E943F2E53
:101FF000805D81938B012530310519F001151105A4
:1020000089F78701020F131FE016F10659F0F80156
:1020100082918F010E944C0D809129018C5F8093E9
:102020002901F2CF0F900F900F900F900F90DF913A
:10203000CF911F910F91FF90EF90DF90CF90089577
:10204000CF93DF936093290140932801EC01FE01B7
:1020500084912196882341F00E944C0D80912901A2
:102060008C5F80932901F3CFDF91CF9108954F9238
:102070005F926F927F928F929F92AF92BF92CF9218
:10208000DF92EF92FF920F931F93CF93DF93C82FAE
:10209000E62ED42F122FB12CA12C642E712C862E5B
:1020A000912CCC24CA94C20EC60ED12CA614B7040F
:1020B0008CF44C2E4A0C512C402FB401C2010E94CA
:1020C000270C402FB601C2010E94270C8FEFA81ADF
:1020D000B80AECCFCC24C394D12C812F8150990B1A
:1020E0005C01E3948E2D8150990B7C016C2E712C38
:1020F000C150DC0FCD2FD0E0CA14DB048CF44701B3
:102100008C0C9D1C402FB401C3010E94270C402F52
:10211000B401CE010E94270C9FEFC91AD90AECCF57
:10212000DF91CF911F910F91FF90EF90DF90CF90B3
:10213000BF90AF909F908F907F906F905F904F90E7
:1021400008957F928F929F92AF92BF92CF92DF922B
:10215000EF92FF920F931F93CF93DF93782E162F5A
:10216000F12CE12CC22ED12CA42EB12CEC14FD04A8
:10217000ACF4D0E0C0E0812E912CCA15DB054CF404
:102180008C2F870D402FB40190E00E94270C2196E0
:10219000F4CF8FEFE81AF80A1F5FE8CFDF91CF91F5
:1021A0001F910F91FF90EF90DF90CF90BF90AF9075
:1021B0009F908F907F9008956F927F928F929F92C1
:1021C000AF92BF92CF92DF92EF92FF920F931F9345
:1021D000CF93DF93C82FA62ED42F022FB42EB80E84
:1021E000F12CE12C642E712CCC24CA94C20EC60EA4
:1021F000D12C862E912CBA94E614F70464F19A2C13
:10220000900ED12CC12C10E0EC2EF12CC150DC0F23
:10221000CD2FD0E09A94C016D106CCF54091190587
:102220004C0D5D2D511D5595479555954795842F1E
:102230008170B82E6A2D6C0D70E0482FC7010E9486
:10224000270C692D70E04B2DCE010E94270C8FEFDB
:10225000C81AD80ADFCF409119054E0D5F2D511DC8
:102260005595479555954795142F11708C2F8E0DC8
:10227000412FB60190E00E94270C412FB4018B2D15
:1022800090E00E94270C8FEFE81AF80AB4CFDF9194
:10229000CF911F910F91FF90EF90DF90CF90BF9063
:1022A000AF909F908F907F906F90089541E1469FEF
:1022B0009001479F300D11242657364F820F931FF0
:1022C000FC018081209119059FEE980F943030F425
:1022D000922F96959151890F83708F5E98E1980F98
:1022E000943028F4922F9695890F8370885122FF9D
:1022F00005C09BEE980F9B3008F4805F0895FF9215
:102300000F931F93CF93DF93DC0111969C9111974C
:10231000192F12951F7085E0189F90011124F90163
:10232000EC50F84FE491F901EB50F84FC491F901EA
:10233000EA50F84F54911296DC9112978D2F8073CA
:1023400009F449C0892F807F803221F0892F807D58
:10235000803129F4613019F4413009F43CC07C919A
:10236000272F2295269526952370892F8F70880F09
:10237000880F822B7F730FEA709FE02D112427E6D0
:10238000F22E8F9D202D1124E227262F30E04C9F26
:10239000200D311D1124E20FF32FF11DEF70FF27E7
:1023A000EA59FE4F2491ED2FE295E37030E0E217F9
:1023B00013068CF0840F8F9D802D1124670F609F72
:1023C000402D1124842783708851DF91CF911F9174
:1023D0000F91FF90089583E31930B8F7892F807F1C
:1023E000803221F0892F807D803121F4DF70DE3052
:1023F00038F0505D842F8295807F860F850FE5CF62
:10240000613011F44130B1F32C91822F8295869581
:1024100086958370E92FEF70EE0FEE0FE82B87E6BD
:10242000E89FE02D11242F739FEA299F202D11246E
:10243000E227262F30E04C9F200D311D1124E20FA2
:10244000F32FF11DEF70FF27EA5AFE4F249130E081
:10245000D21713067CF2489F802D1124699F402DCE
:102460001124842787708052B0CF90E020E3629FD0
:10247000800D911D1124FC0123E0F595E7952A9527
:10248000E1F7E657FA4F208130E08770992741E065
:1024900050E002C0440F551F8A95E2F724233523EC
:1024A00081E0232B09F480E008958033910538F50D
:1024B0006033710520F520E3269FF001279FF00D82
:1024C00011248E0F9F1F9C0123703327220F331F6F
:1024D0009595879595958795FC01E75CFE4F83E080
:1024E00090E0022E01C0880F0A94EAF7809590854B
:1024F000892301C0440F2A95EAF7842B8087089529
:1025000080339105F8F460337105E0F440E3469FB1
:102510009001479F300D1124280F391FF901F595BF
:10252000E795F595E795E75CFE4F808590E0237091
:102530003327220F331F02C0959587952A95E2F71E
:102540008370089580E008958F929F92AF92BF921A
:10255000CF92DF92EF92FF920F931F93CF93DF936F
:10256000DC0111969C911197292F22952F7085E0FF
:10257000289F90011124F901EC50F84F1491F901B2
:10258000EB50F84FD4910C91802F829586958695CB
:1025900083709F70990F990F982BE92EF12CC0E052
:1025A000C9F0802F8F73C82ED12C912C812CC0E0C4
:1025B000570121E0A21AB108811660F4B501C401E7
:1025C0008C0D9D1D0E94801280FDCF5F3FEF831A0E
:1025D000930AF2CF47018D0E911C80E38816910477
:1025E000A4F4802F8F73A82EB12CD12CC12CC1162E
:1025F00060F4B401C6018A0D9B1D0E94801280FD0B
:10260000CF5F2FEFC21AD20AF2CF802F8F73A1F0C3
:10261000282F2150330B5901D12CC12CCD1660F439
:10262000B7016C0D7D1DC5010E94801280FDCF5F3A
:102630003FEFC31AD30AF2CF0F73010F1127111FF7
:102640000033110584F4D12CC12CCD1660F4B701F0
:102650006C0D7D1DC8010E94801280FDCF5F8FEF41
:10266000C81AD80AF2CF8C2FDF91CF911F910F910A
:10267000FF90EF90DF90CF90BF90AF909F908F90A2
:102680000895EF92FF920F931F93CF93DF938C01E6
:102690007B01D42F161617063CF4615071090E9475
:1026A00080128D23C1E009F4C0E00F32110544F41B
:1026B000B701C80101960E9480128D2309F0C26003
:1026C0008FE2E816F1044CF4B7016F5F7F4FC80149
:1026D0000E9480128D2309F0C4601016110644F484
:1026E000B701C80101970E9480128D2309F0C860CC
:1026F0008C2FDF91CF911F910F91FF90EF90089554
:10270000BF92CF92DF92EF92FF920F931F93CF93DE
:10271000DF938C01C09708F068C16033710508F041
:1027200064C150E040E025E0C22EDA01AA0FBB1FD1
:10273000A40FB51FFD01ED56FC4F2181822F807F34
:1027400009F449C08081982F9F73D92EE92EF12C6E
:102750000E151F050CF43FC08295869586958370F3
:10276000922F9F70990F990F982BC92FD0E06C175B
:102770007D078CF1FD01EC56FC4F208122952F70D6
:102780002C9D90011124F901EC50F84FB490F901FF
:10279000EB50F84F84912A50384FF9012491EB0CFB
:1027A000F11C0E151F05BCF4C80FD11D6C177D0759
:1027B00094F4462F491B602F6D19CD018D569C4F07
:1027C000DF91CF911F910F91FF90EF90DF90CF900D
:1027D000BF900C947F114F5F5F4F4238510509F055
:1027E000A4CF7B01C8010E948012813009F075C01E
:1027F00041E0B701C8010E944113E82FF0E0EA5818
:10280000FE4FC491B701C8010E94820C81110DC016
:102810008C2F8170805EDF91CF911F910F91FF907F
:10282000EF90DF90CF90BF90089550E040E0D5E06A
:10283000DA01AA0FBB1FA40FB51FBD016D567C4F57
:10284000FB019181892F807F09F43FC09D012B56A8
:102850003C4FF901808186FF38C0FB018081682FE1
:102860006F7370E09B0121503109021713076CF15F
:10287000282F2295269526952370E92FEF70EE0FCD
:10288000EE0FE22B2E2F30E0C9010197E816F90672
:10289000E4F0AC56BC4F8C9182958F708D9FC00137
:1028A0001124FC01EC50F84FA491FC01EB50F84FBF
:1028B000E4916A0F711D601771073CF0E20FF32F6E
:1028C000F11DEE15FF050CF092C04F5F5F4F4238CF
:1028D000510509F0ADCF85E017C08230B9F442E070
:1028E000B701C8010E944113E82FF0E0EA58FE4FFB
:1028F000C491B701C8010E94820C811104C08C2FC1
:1029000081708E5D88CF85E38C0F85CF833069F42D
:1029100041E0B701C8010E944113E82FF0E0EA58F6
:10292000FE4F849181708F5C76CFE114F10409F43D
:102930006AC0B70161507109C8010E94820CD82F8A
:102940000F32110509F455C0B701C80101960E9464
:10295000820CC82FCC24C394FFE2EF16F10439F0A7
:10296000B7016F5F7F4FC8010E94820CC82EDD2423
:10297000D3940115110531F0B701C80101970E94E8
:10298000820CD82EB701C8010E94820C882309F15D
:10299000D11114C08FE4DD2009F43DCF8FE5CC23A5
:1029A00009F439CF87E6E89E802D11246FEA069F4F
:1029B000002D1124802783708F5F2DCFC110F2CF9F
:1029C0008FE6DD2009F427CF8FE7CC2309F423CF4E
:1029D000E9CF87E6E89E802D11246FEA069F002D3F
:1029E0001124802783708F5E16CF80E014CF85E19D
:1029F0008BCFCC24C394C1E08FE2E816F10409F434
:102A0000BBCFC1E0ADCFD1E00F32110509F09CCFB3
:102A1000F8CFCF93DF9390E02091240AAC01421BC2
:102A2000510927FD53959A0141315105C0F470E0D9
:102A30004091230AFB01E41BF10947FDF395AF0127
:102A4000399768F4E1E1E49FE001E59FD00D11249E
:102A5000C20FD31F0E948013C657D64F8883DF91C1
:102A6000CF9108954F925F926F927F928F929F9233
:102A7000AF92BF92CF92DF92EF92FF920F931F938C
:102A8000CF93DF936C01DC011196CC91C295CF708E
:102A9000B5E0CB9FE0011124FE01EC50F84F04910A
:102AA000CB50D84FFE01C491F12CE12CD0E010E0C6
:102AB00081E1582ED601EC918E2F829586958695D0
:102AC000837011966C90B62DBF706B2E660C660CE1
:102AD000682AEC16FD06DCF54E2C6E0C912C812C30
:102AE000712CF601A080FA2DFF73AF2E801691068F
:102AF00054F5A80CB12C8091240AA81AB10887FDBE
:102B0000B39421E1A216B104D0F48091230AD30139
:102B1000A81BB10987FDB395A930B10580F45A9E71
:102B200090015B9E300D1124A20EB31E442D682D22
:102B3000C6010E947F11F501E657F64F8083BFEF73
:102B40008B1A9B0ACECFEFEFEE1AFE0AB3CFEF73CC
:102B5000BB24BA94BE0EE11101C0B12C0E0F111DA1
:102B60000033110514F00FE210E0702EAA24AA948D
:102B7000A60C611001C0A12CC60DD11DC033D1051A
:102B800014F0CFE2D0E06C2E8B2C912C6401EA2C57
:102B9000F12C0C151D05C4F0B701C6010E9480126E
:102BA00080FF04C06A2D8C2D0E940915BE01C6014C
:102BB0000E94801280FF04C0662D8C2D0E94091592
:102BC000FFEFCF1ADF0AE3CFCE15DF05C4F0B70160
:102BD000C4010E94801280FF04C06E2D8B2D0E94C4
:102BE0000915B701C8010E94801280FF04C06E2D34
:102BF000872D0E9409152FEFE21AF20AE5CFDF9127
:102C0000CF911F910F91FF90EF90DF90CF90BF90E9
:102C1000AF909F908F907F906F905F904F900895AE
:102C2000EF92FF920F931F93CF93DF93D82FC62F6E
:102C30000E9409150C2F10E0ED2EF12CD1110DC0C2
:102C4000B801C70101960E9480128823A1F06C2F61
:102C500081E08D0F0E9409150EC0B801C7010197D0
:102C60000E948012882329F06C2F8FEF8D0F0E9415
:102C70000915DF3228F3C11113C0B8016F5F7F4F10
:102C8000C7010E9480128823D1F061E06C0F8D2F64
:102C9000DF91CF911F910F91FF90EF900C94091548
:102CA000B80161507109C7010E948012882329F080
:102CB0006FEF6C0F8D2F0E940915CF32F0F2DF916C
:102CC000CF911F910F91FF90EF9008956F927F9297
:102CD0008F929F92AF92BF92CF92DF92EF92FF922C
:102CE0000F931F93CF93DF93C0911A05D0911B05CB
:102CF00083E0D595C7958A95E1F7C093240A609043
:102D00001C0570901D0593E0759467949A95E1F702
:102D10006092230A2AE8C22E29E0D22E10E000E0B9
:102D2000062C000C77080C2E000CDD0B4601F12C54
:102D3000E12C5301A00EB11EB501CE018E0D9F1DD9
:102D40000E948013F40181934F01FFEFEF1AFF0AF5
:102D500081E1E816F10481F70F5F1F4FE1E1CE0E2C
:102D6000D11C0930110511F7DF91CF911F910F91FF
:102D7000FF90EF90DF90CF90BF90AF909F908F909B
:102D80007F906F900895E9E3F1E0119285E0E931D9
:102D9000F807D9F787E08093820380E994E2909363
:102DA0009203809391030E94661681E08093200530
:102DB00088E180931E0580931F0584E890E090933E
:102DC0001B0580931A0584EA90E090931D0580937B
:102DD0001C0580E197E2A0E0B0E080933D01909374
:102DE0003E01A0933F01B093400180912305816093
:102DF0008093230508958F929F92AF92BF92CF92B6
:102E0000DF92EF92FF920F931F93CF93DF938C018A
:102E1000DC0111962C91822F82958F70B5E08B9FEB
:102E2000C0011124FC01EC50F84FC490FC01EB50A0
:102E3000F84FE491D8018C90882D829586958695DF
:102E400083702F70822E880C880C882A912CEE2E8D
:102E5000F12CAC2CB12CF8018081982F929596958D
:102E600096959370C181CF70CC0FCC0FC92B970171
:102E70002C0F311D82169306BCF48F73C82FD0E03F
:102E8000D8018C918F738A0D9B2D911DC817D9077E
:102E90003CF440E0B401CE010E9455122196F0CFDF
:102EA000BFEF8B1A9B0AD7CF82818F7C8283F3E09E
:102EB00099E0CF129AE09295907FD80111968C916B
:102EC00011978F70892B11968C93D12CF801D0819A
:102ED0008D2F829586958695837021812F70220F84
:102EE000220F282B2E0D3F2D311DC217130694F4EF
:102EF000DF73D8018C918F738C0D9D2D911DD81788
:102F0000190634F46C2F8D2F0E94E908DF5FF1CF92
:102F1000CF5FDCCFDF91CF911F910F91FF90EF90AA
:102F2000DF90CF90BF90AF909F908F900895CF92F9
:102F3000DF92EF92FF920F931F93CF93DF93B0E056
:102F4000A0E075E0C82FD0E0062F10E0AD01440FDF
:102F5000551F4A0F5B1F9A012D563C4F7901F9010D
:102F60009181292F207F81F1FA01EC56FC4F2081BD
:102F700022952F70279F90011124F901EC50F84FF2
:102F8000D490F901EB50F84FC490F7012081322F13
:102F90003F738317C8F0E32FED0DFF27FF1FCE17F8
:102FA000DF0794F4322F3295369536953370292FFA
:102FB0002F70220F220F232B621730F02C0D332796
:102FC000331F0217130744F01196A238B10509F018
:102FD000BDCF90E080E003C0CA018D569C4FDF91C9
:102FE000CF911F910F91FF90EF90DF90CF900895B8
:102FF000BF92CF92DF92EF92FF920F931F93CF93E6
:10300000DF938C01DC0111969C91C92FC295CF7082
:10301000B5E0CB9FE0011124FE01EC50F84FD490B5
:10302000FE01EB50F84FC490D801EC91BE2FBF7356
:10303000EB2EF1E02EEFB22EBB0EFB1708F0BB2EED
:10304000E295E695E695E370C92FCF70CC0FCC0FD3
:10305000CE2B8EEFF82EFC0EC23008F4FC2E0E9410
:103060003B0DD801DC91982F927080FF4BC0D29518
:10307000D695D695D3701196FC90BF2DBF70FB2EC0
:10308000FF0CFF0CFD2AE394E394ED0C9111EB2C63
:10309000D12CF8018081982F9295969596959370F2
:1030A00081818F70880F880F892B8C0D9D2D911D2C
:1030B000F81619065CF080E0DF91CF911F910F9117
:1030C000FF90EF90DF90CF90BF9008956F2D8E2DE1
:1030D0000E949717FC01892B99F09281892F8073A8
:1030E00079F48181282F207F203551F0803940F4F8
:1030F0009F7C90619283CF010E94321581E0DCCFEA
:10310000F394C7CFDF73CE5FCC0D9111CF2DED2C93
:10311000F12CD8018C918F738E0D9F2D911DD81796
:1031200019064CF66C2F8D2F0E949717FC01892BE6
:1031300059F09281892F807339F48181282F207F63
:10314000203511F08039A0F2DF5FE3CF0C94C52D5C
:103150000F931F93CF93DF9380E190E00E94A61816
:10316000833439F581E190E00E94A618843509F591
:1031700082E190E00E94A6188935D9F483E190E0BD
:103180000E94A6188133A9F4C4E1D0E009E311E05C
:10319000CE010E94C52DF80181938F012196C43F75
:1031A000F3E0DF07A9F781E0DF91CF911F910F9145
:1031B000089580E0F9CFFF920F931F93CF93DF9391
:1031C000EC01F62E08811981C8010E94C52DF81660
:1031D00021F06F2DC8010E94CD2DCE01DF91CF913E
:1031E0001F910F91FF9008952F923F924F925F92FF
:1031F0006F927F928F929F92AF92BF92CF92DF9207
:10320000EF92FF920F931F93CF93DF93CDB7DEB76B
:103210002A970FB6F894DEBF0FBECDBF509022059F
:1032200024E052124AC080FF07C0909121059111FD
:1032300015C09CE09093210581FF06C09091210567
:103240009C3071F4109221058073A9F080912105C2
:103250008B3050F48093200582E04EC09150EACF2D
:103260009F5F90932105F0CF8B30F1F485E0809340
:103270002205109221052A960FB6F894DEBF0FBEE4
:10328000CDBFDF91CF911F910F91FF90EF90DF9015
:10329000CF90BF90AF909F908F907F906F905F90F6
:1032A0004F903F902F9008958C3029F786E08093BF
:1032B000220580E180932105DECF182F33E05312E1
:1032C00003C00E94BA0CD7CF511019C062E00E940F
:1032D000DF0C15FFD0CF80912105882361F081306C
:1032E00051F60E94A818882331F282E080932205CB
:1032F0000E946616C0CF81E080932205BCCF41E0DA
:10330000541222C080FF07C080918103811116C032
:1033100082E08093810311FF06C080918103823097
:1033200079F41092810315FFA6CF109181030E94BA
:10333000C316109381030E9466168ECF8150E9CF89
:103340008F5F80938103EFCF85E058125DC064E00A
:10335000812F0E94DF0C14FF03C082E080932205BE
:1033600015FF89CF80912105813009F4BACF78F01B
:10337000823009F4C0CF833009F07DCF90912305CE
:10338000892F8E7F90FF81608093230574CF80E129
:1033900090E09A83898363E4CE0101960E94DB1852
:1033A00081E190E09A83898364E5CE0101960E94D1
:1033B000DB1882E190E09A83898369E5CE0101966A
:1033C0000E94DB1883E190E09A83898361E3CE0158
:1033D00001960E94DB18A9E3EA2EA1E0FA2E04E18F
:1033E00010E0F701D1907F01C8010E94C52DD816C9
:1033F00021F06D2DC8010E94CD2D0F5F1F4F043F9E
:10340000F3E01F0771F728CF22E05212DCC2812FB0
:103410000E94BA0C14FF07C084E0809322058091BB
:1034200020058093210515FF26CF309120053C8390
:10343000311172C000911F0510911E05602F812F60
:103440000E9497170097B1F1FC01218122952F70FE
:10345000293080F5F5E02F9F90011124F901EC50FF
:10346000F84F44912B50384FF9012491C0903D0101
:10347000D0903E01E0903F01F0904001429FA001BA
:103480001124052E000C660B770BC416D506E60634
:10349000F7060CF4F0CEC41AD50AE60AF70AC09271
:1034A0003D01D0923E01E0923F01F09240010E9426
:1034B000FB16E1CEC02ED12CE12EF12CB601C701B6
:1034C0000E948012882309F4D6CE80913D0190910C
:1034D0003E01A0913F01B0914001181619061A064D
:1034E0001B060CF0C8CE0197A109B10980933D01DC
:1034F00090933E01A0933F01B093400140E0B6019C
:10350000C7010E945512602F812F0E941016602F54
:10351000812F0E94E908AFCEFC81F33008F0C5C0CE
:10352000B0901F05A0901E056B2D8A2D0E94971745
:103530006C01009729F0FC018181803908F49BCE51
:10354000FC81E5E02E2E312CF13029F455245394E2
:10355000FAE02F2E312CEB2CF12C0A2D10E0B701C4
:10356000C8010E948012682EB701C8010E94820C17
:103570008823A1F1852D862109F07DCE40913D0162
:1035800050913E0160913F0170914001C101330CA7
:10359000AA0BBB0B481759076A077B070CF46BCEC5
:1035A000481B590B6A0B7B0B40933D0150933E0126
:1035B00060933F0170934001452D4629B701C80132
:1035C0000E945512C114D10421F0F60181818F703F
:1035D00081836B2D8A2D0E9410164DCE61104BCE2B
:1035E000452DB701C8010E944113782E8FEF870D3A
:1035F000823048F08CEF870D823028F0872D8D7F48
:10360000883009F038CE70FC3DC071FE12C0480110
:103610003FEF831A930AB701C4010E94820C811103
:1036200008C0452DB701C4010E944113857009F0FF
:1036300022CE72FE12C047014FEF841A940AB401E1
:10364000C8010E94820C811108C0452DB401C80137
:103650000E9441138A7009F00ECE73FE8BCF480191
:1036600081E0881A9108B701C4010E94820C81117F
:1036700081CF452DB701C4010E944113857009F423
:1036800079CFF9CD470121E0821A9108B401C80130
:103690000E94820C8111B9CF452DB401C8010E944E
:1036A00041138A7009F4B1CFE6CD2C812250330B3F
:1036B0008901AE014F5F5F4FBE016D5F7F4FC90152
:1036C0000E94FB0C25E0209FC001219F900D11243A
:1036D000FC01EE50F84F25903490FC01EC50F84F6F
:1036E000FE83ED8304919C012B50384F38872F8344
:1036F000F901C4906B80712C060D172D111D01333B
:1037000011050CF0B8CDE980F12CCE0CDF2CD11CCA
:10371000F1E3CF16D1040CF0AECD5301A016B106E3
:10372000CCF447018C149D048CF4B401C5010E94B3
:10373000820C882309F49FCDB401C5010E94801238
:1037400080FD99CD2FEF821A920AECCF3FEFA31A9A
:10375000B30AE4CF50E040E065E0CA01880F991F4A
:10376000840F951FDC01AD56BC4F11963C9111970B
:10377000232F207F99F18C569C4FFC0180818295EC
:103780008F70893058F5869FC0011124FC01EC50E0
:10379000F84F74918B50984FFC0184919C91E92FC4
:1037A000EF73F0E0E017F107CCF4E70FF11D6E16B0
:1037B0007F06A4F49295969596959370232F2F707B
:1037C000220F220F292B30E02C153D053CF4820FEF
:1037D000932F911DE816F9060CF44DCD4F5F5F4F06
:1037E0004238510509F0B9CF3101912C812C8091DB
:1037F0003D0190913E01A0913F01B091400186159D
:103800009705A805B9050CF436CD49803B8190E0B9
:1038100080E0FC01EE0FFF1FE80FF91FEC56FC4F94
:10382000208122952F70C9F001968238910589F781
:1038300090E080E0FC01EE0FFF1FE80FF91FEC564F
:10384000FC4F208122952F70295F2F70223028F0A5
:1038500001968238910571F70ECD2C812250FC0122
:10386000EE0FFF1FE80FF91FCF018D569C4F9A876F
:103870008987FC01832F8F73942D9295990F990F4F
:10388000907C892B8083942D969596959F70822F9E
:103890008295807F892B8183828180748283ED81F0
:1038A000FE818491EF81F885F491FC83253009F441
:1038B000512C232E312C81015101A80EB11CC42C96
:1038C000D12C2C812C0D3D2D311D3E832D830A15CD
:1038D0001B0594F476018D819E81E816F9064CF45F
:1038E000452DB701C8010E9455129FEFE91AF90A48
:1038F000F2CF0F5F1F4FEBCF70E060E095E0C92E75
:10390000512C7201EC81EE0EF11C9B01220F331F32
:10391000260F371FF901EC56FC4F808182958F707E
:10392000893090F18C9DC0011124FC01EC50F84FBE
:10393000D490FC01EB50F84FE491D901AD56BC4F47
:103940002C91022F0F7310E00A151B05ECF40D0DDE
:10395000111D20163106C4F4229526952695237054
:1039600011969C9111979F70892F880F880F282B93
:1039700030E02E153F0544F4E20FF32FF11D4E16F3
:103980005F0614F411969C936F5F7F4F6238710548
:1039900009F0BBCF89859A850E94321580913D013F
:1039A00090913E01A0913F01B09140018619970985
:1039B000A809B90980933D0190933E01A0933F016E
:1039C000B093400158CCF6E05F1255CC80912105B0
:1039D000803108F450CC10FF07C080918203882307
:1039E00019F081508093820311FF07C080918203F8
:1039F000833618F48F5F80938203107309F02CCC08
:103A00003ACC1F920F920FB60F9211248F939F936F
:103A10008091E1009091E100937F9093E10083FF1A
:103A20000FC01092E90091E09093EB001092EC002F
:103A300092E39093ED001092890598E09093F00046
:103A400082FF22C093E09093E9009091F2009923C5
:103A500019F09AE39093E80090912A05992341F098
:103A600090912A05915090932A05911101C05D9A79
:103A700090918805992341F09091880591509093F9
:103A80008805911101C0289A84FF18C08091E20036
:103A90008E7E81608093E2008091E1008F7E809332
:103AA000E10080912B058E7E806180932B059F9194
:103AB0008F910F900FBE0F901F90189580FFF7CF3A
:103AC0008091E2008E7E80618093E2008091E1002F
:103AD0008E7E8093E10080912B058E7E8160E5CF04
:103AE0001F920F920FB60F921124CF92DF92EF9296
:103AF000FF920F931F932F933F934F935F936F9377
:103B00007F938F939F93AF93BF93EF93FF93CF9345
:103B1000DF93CDB7DEB76C97DEBFCDBF1092E90063
:103B20008091E80083FF25C068E0CE0145960E94A1
:103B3000290B82EF8093E8008D8987FF39C090912F
:103B4000E80090FFFCCF982F907609F034C19E8951
:103B50004F89588D2F89F88C911131C0803861F5CB
:103B6000809129058093F1001092F1008EEF8093EF
:103B7000E8006C960FB6F894DEBF0FBECDBFDF91A4
:103B8000CF91FF91EF91BF91AF919F918F917F91D5
:103B90006F915F914F913F912F911F910F91FF90E6
:103BA000EF90DF90CF900F900FBE0F901F90189561
:103BB0009EEF9093E800C7CF1092F100D5CF9130DF
:103BC00059F48111D3CF4130510581F680912905F7
:103BD0008D7F80932905CACF933049F48111C6CFD8
:103BE0004130510519F6809129058260F2CF953058
:103BF00041F48091E80080FFFCCF20682093E3002F
:103C0000B5CF963009F0A9C00B8D1C8D22E0109223
:103C1000E9001092270510922605F2122EC010928C
:103C20002505109224050E94F80A1F8299E09983C5
:103C3000FA8291E09E8390EA98879AEF9987209183
:103C4000260530912705275F3F4F3C832B838D83CB
:103C50001092E90010922705109226051093250571
:103C60000093240549E050E0BE016F5F7F4F80E084
:103C70000E94D20A0E94F80A79CF1093250500937A
:103C800024050E940F0ADC0112960D911C9101156A
:103C9000110509F451C1D801ED91FC910480F58121
:103CA000E02DBE016B5E7F4FC8010995009709F0BA
:103CB0003EC1F80100851185EACFF3E0FF120EC086
:103CC0008F89882309F440C0823061F440E860E1C4
:103CD0008AE699E00E94EC1F811148CF81E280932F
:103CE000EB0047CF813029F440E86BE08EE599E0A6
:103CF000F1CF833099F70E940F0ADC011296ED9004
:103D0000FC908E010F5F1F4F6801E114F10479F000
:103D1000D701ED91FC910680F781E02DB801C70134
:103D20000995080F111DF701E084F184EECFD80149
:103D30001C92F60101900020E9F73197BF016C1940
:103D40007D0940E0C601C6CF68E479E0FB014491FB
:103D500050E080E80E94D20A09CF973009F4BECF24
:103D6000983021F481E08093F10000CF993009F080
:103D7000FDCE837009F0B2CFE0E1F1E081E031E007
:103D800096E32191222371F08093E9003093EB00B8
:103D9000DF0111972C912093EC009093ED008F5F41
:103DA000873079F78EE78093EA001092EA008F89D6
:103DB00080938905DBCE8B8D9C8D1092E90010924B
:103DC0002705109226059093250580932405898D5B
:103DD000811192C08E899D89913A49F4813209F00E
:103DE0007DCF47E050E067E071E080E0B3CF9132F3
:103DF00009F074CF833269F48F89988DB0E0A0E028
:103E00008093030190930401A0930501B0930601F0
:103E1000ADCE803269F48091E80082FFFCCF67E08C
:103E200087E091E00E94290B8BEF8093E8009ECE03
:103E3000823209F09BCE8F8980930E01EEEFFFE76F
:103E4000859194918B3F9C4D51F1E0E0F8E0809199
:103E5000070190910801A0910901B0910A01803BEE
:103E60009440A105B105F1F480910E0180FD1AC0C6
:103E7000EE3F8AE0F80789F587E797E7918380832B
:103E8000809160008093280588E19BE00FB6F8944C
:103E9000A895809360000FBE9093600067CEEEEF10
:103EA000FAE0D5CF808191818737974709F05ECEC0
:103EB000A8958091600088618093600080912805BA
:103EC00080936000EE3F2AE0F20789F08091FE0ABD
:103ED0009091FF0A9183808349CE808191818737B9
:103EE000980751F29093FF0A8093FE0AC5CF109273
:103EF000FF0A1092FE0A3ACE0E940F0ADC011296C7
:103F00000D911C910115110509F4E8CED801ED9130
:103F1000FC910190F081E02DBE016B5E7F4FC801E6
:103F20000995811123CEF80100851185EBCF181674
:103F300019060CF41BCED2CEF1E0FF12BECE6CE41B
:103F400079E004CF1F920F920FB60F9211242F9396
:103F50003F938F939F93AF93BF9380912F01909145
:103F60003001A0913101B091320130912A0123E05A
:103F7000230F2D3758F50196A11DB11D20932A015D
:103F800080932F0190933001A0933101B0933201BF
:103F900080912B0190912C01A0912D01B0912E01C7
:103FA0000196A11DB11D80932B0190932C01A0932C
:103FB0002D01B0932E01BF91AF919F918F913F91B1
:103FC0002F910F900FBE0F901F90189526E8230F8A
:103FD0000296A11DB11DD2CFEF92FF920F931F93B6
:103FE000CF93DF93F82E192FE62E042F81E0860F52
:103FF000880F0E94A40A83E00E94A40ACF2DD12F2B
:10400000EC0EFD2EF11CCE15DF05B9F007FF13C035
:10401000FE0184910E94A40A182F80E00E94A40A45
:10402000812321968111EFCFDF91CF911F910F91C5
:10403000FF90EF9008958881EDCF81E0F5CFECE21D
:10404000F5E01382128288EE93E0A0E0B0E0848372
:104050009583A683B7838AE191E0918380838FEF74
:104060009FEF958784870895CF93DF93CDB7DEB711
:1040700063970FB6F894DEBF0FBECDBF789484B5BA
:10408000826084BD84B5816084BD85B5826085BD54
:1040900085B5816085BD80916E00816080936E00E2
:1040A00010928100809181008260809381008091D4
:1040B0008100816080938100809180008160809385
:1040C00080008091910082608093910080919100A6
:1040D0008160809391008091900081608093900036
:1040E0008091C10084608093C1008091C100826092
:1040F0008093C1008091C10081608093C100809154
:10410000C30081608093C3008091C000826080936F
:10411000C0008091C20081608093C20080917A00CB
:10412000846080937A0080917A00826080937A0024
:1041300080917A00816080937A0080917A00806813
:1041400080937A00109289051092290510922B0510
:104150008091D70081608093D70080EA8093D80057
:1041600089B5806189BD89B5826089BD09B400FEC9
:10417000FDCF61E070E080E090E00E945B0B8091F9
:10418000D8008F7C80618093D8008091E000807F90
:104190008093E0008091E1008E7E8093E1008DE0CD
:1041A0008093E200559A209A81EC80937C0085B13F
:1041B000806F85B984B1877E84B984B1876E84B9F4
:1041C0005E9A5F988AB1806D8AB9769A6E9881B34B
:1041D000806F81BB899880B38D7080BB80E58CBD7A
:1041E00081E08DBD85E090E00E94150C5F9A85E02E
:1041F00090E00E94150C5E985C98E6E4F2E083E59E
:1042000092E024912EBD00000DB407FEFDCF319643
:104210008E179F07B1F75C9A81E8809364008091C4
:10422000650081608093650080E80E941A0C02E0BE
:1042300010E08823A9F05C9885EA8EBD00000DB4DB
:1042400007FEFDCF5C9A2E982F982D9880916400E0
:1042500080628093640081E083BF889513BEFCCFA9
:1042600084E00E941A0C882309F440C02D9884E849
:104270000E941A0C8823C1F00E94130C88EC90E075
:104280000E94150C2F981A8309836FEFCE010196B7
:104290000E94DB1884EF91E00E94150C2F9A84E8AD
:1042A0000E941A0C8111FBCF84E10E941A0C882312
:1042B000C1F00E94130C88EC90E00E94150C2E981F
:1042C0001A83098360E0CE0101960E94DB1884EF17
:1042D00091E00E94150C2E9A84E10E941A0C811123
:1042E000FBCF88EC90E00E94150CBACF0E94130C13
:1042F00081E090E00E94A618182F147081FF0FC073
:1043000011112E98F1EFEF2EFF24FA9480E40E9411
:104310001A0C882309F12E9A2F9A0E94130C88E216
:10432000809302010E94C3168FB7F89440912F0129
:104330005091300160913101709132018FBF8091B5
:1043400035018823B9F11092350180E090E0892B86
:1043500059F30E940000E8CF112331F024E0E21667
:10436000F10411F42E9A2F9881E00E94C50900E112
:1043700028E543E552E0B70184E190E00E940B0993
:1043800080E00E94C5098FE090E00E94150C3FEF8D
:10439000E31AF30A49E1E416F10409F0B7CF112357
:1043A00011F02F9A2D9880E991E00E94150C0E943F
:1043B000130CB5CF80913601942F981B892F9091C3
:1043C0000201891748F48F5F891708F0BECF81E09A
:1043D00083BF889513BEB9CF81E0809335014093A8
:1043E000360180913301909134010196909334010C
:1043F0008093330180912205823019F0843009F0D6
:1044000017C680913C01823808F0B7C3E82EF12C22
:10441000A3E08A9FC0011124FC01ED56FC4F5F010F
:104420004701880C991C94012E0D3F1DF901ED5692
:10443000FC4F9281892F807309F44CC1D901AC568D
:10444000BC4F8C91803908F493C02B563C4FD90156
:104450008C9182958F708D5F83708295807F9F7C19
:10446000892B82830E943B0D813418F0C5010E9484
:10447000F817C5010E94321580913C018F5F80932F
:104480003C01809191039091920301979093920344
:1044900080939103892B09F0CBC502E810E00E94BC
:1044A0003B0D9927823891050CF052C69C01220FD2
:1044B000331F820F931FFC01EC56FC4F2081229585
:1044C0002F7009F445C6FC01EB56FC4F3081329544
:1044D000337009F03DC6293008F03AC6253009F49A
:1044E00037C68C010D561C4FD80112962C9112978D
:1044F0002F7C206112962C93C8010E943215F8017E
:104500002081922F929596959695937081818F70C8
:10451000880F880F892B8F5F2F732F5F20931E05C5
:1045200080931F05F8E02F9F900111242C5331092F
:1045300030931B0520931A0528E0829FC0011124A7
:104540004C9790931D0580931C0583E08093220572
:104550008CE3809321050E943B0D60E678E10E9488
:104560002B2E805D934F909392038093910360C5AF
:104570000FEF30E020E0C901880F991FAC01420F16
:10458000531FBA016D567C4F6B01DB0111966C9184
:10459000607F603799F54B565C4FDA014C9147FFCD
:1045A0002DC050815F73D6014C914F73451708F0B1
:1045B00059C0541B452F5081652F629566956695AD
:1045C000637051815F70550F550F562B820F931FEB
:1045D000DC01AD56BC4F8C91982F9295969596958F
:1045E000937011968C918F70880F880F892B851787
:1045F000D8F5581B540F501708F4052F2F5F3F4F65
:104600002238310509F0B7CFB5E00B9F80011124A6
:10461000005C1F4F0F3F110509F04CF50E943B0D48
:104620008017110621F118F1C4018E0D9F1DFC01A8
:10463000ED56FC4F8B569C4FDC018C9182958F7010
:104640008D5F83708295807F92819F7C892B82838E
:10465000F401EE0DFF1DED56FC4F82818F7B8283AE
:1046600080E0CDC1451BA7CF851B582FC3CF0E942B
:104670003B0D8134D8F00E943B0D803448F7940103
:104680002E0D3F1D89010D561C4FF8019281892F77
:104690008073803389F4C5010E94FB16D8011296FD
:1046A0008C911297806312968C93D2CFC5010E9491
:1046B000F817882301F3CCCF2B563C4FF9018081AA
:1046C00082958F708F5F83708295807F9F7C892B0E
:1046D000D801E9CF8181982F907D903121F0807FA2
:1046E000803209F0BDCF84010E0D1F1DF801EB567D
:1046F000FC4F808187FF1AC20E943B0D20918203EC
:104700002650330B66EF6203A001639F500D112406
:104710008F7199270F97480F591FF801EC56FC4FDE
:10472000908192959F70923009F4C2C09330D9F075
:104730009130B1F48091830390918403209185039B
:10474000309186038217930700F16091870370917F
:104750008803260F371F0CE91FEF28173907B8F019
:1047600010E000E014C080918503909186032091B1
:104770008303309184038217930738F020918703D5
:10478000309188038217930758F70AE010E0FA0186
:10479000E00FF11FFD87EC87C5010E94A412833052
:1047A00008F4BDC1F401EE0DFF1DED56FC4F8281F2
:1047B0008F7031F42C853D85215F3F4F3D872C87DD
:1047C00043E953E05D834C8310E000E0312C212C61
:1047D00058E15887712C612CC4018E0D9F1DBC01BE
:1047E0006D567C4F2B01DC01AB56BC4FBF87AE87AB
:1047F000EC81FD81AE16BF0609F49FC06301CC0CAD
:10480000DD1CC601860D971DFC01ED56FC4F218174
:10481000207F09F492C08B569C4FDC018C9187FD60
:1048200003C0203509F089C0F601E60DF71DED56ED
:10483000FC4F8281807309F080C0D2019C919F73EC
:1048400080818F73891708F044C0981B892FF2016B
:104850003081329536953695337091819F70990FDE
:10486000990F392BF601E60DF71DED56FC4F90819F
:10487000492F429546954695437091819F70990FB7
:10488000990F942B931738F5391B932F890F2036E6
:1048900021F5F8858F1708F48887F601E60DF71DD6
:1048A000EB56FC4F908196FF2CC028E030E022C0F0
:1048B0008091870390918803209183033091840332
:1048C0008217930708F461CF209185033091860306
:1048D00059CF891BBCCF931BD9CF203309F0BCC063
:1048E000F601E60DF71DEB56FC4F20812F7030E0EE
:1048F000285F3F4F281B31091216130614F4220EAD
:10490000331E8132D0F48C819D810E94A4128330A9
:10491000A0F0C601860D971DFC01EC56FC4F2081CE
:1049200022952F70233009F4AFC008F09BC02130CE
:1049300009F4C8C0223009F4D6C0FFEF6F1A7F0A0D
:104940002C813D812D5F3F4F3D832C8332E86316E0
:10495000710409F04DCF6C857D85060F171FF4019A
:10496000EE0DFF1DED56FC4F8181807F803151F4AB
:1049700091012333310514F022E330E0220F331F7D
:10498000021B130BF401EE0DFF1DEB56FC4F408193
:104990004F70A885A051BB0B4A9F90014B9F300DD3
:1049A000112437FF02C030E020E02333310514F03A
:1049B00022E330E0021B130BF401EE0DFF1DED5658
:1049C000FC4F92819F709F3039F081E004311105D6
:1049D0004CF480E0992331F081E0033E1F4F0CF04E
:1049E00080E08195F401EE0DFF1DED56FC4F21E0B6
:1049F0004D3008F420E0928120FB96F992839401D7
:104A00002E0D3F1DF901ED56FC4FD901AB56BC4FA1
:104A10009C91980F492F4F709281907F942B928395
:104A20002C563C4FF901908192959F70923009F479
:104A300097C0933009F487C0913009F01ACD2091C6
:104A4000830330918403280F311D87FD3A953093FD
:104A50008403209383030DCD203409F01ECF20E280
:104A600030E048CF253009F451C0283009F065CF37
:104A7000D20111968C91807F803119F0803209F03B
:104A80005CCF0C591F4F59CF8B569C4FDC019C912A
:104A90009F70EE85FF8580818F70981748F0D20156
:104AA00011962C91207F203119F40C5F1F4F45CFB8
:104AB000891708F042CFF2018181807F803209F0AE
:104AC0003CCFF3CF8B569C4FDC019C919F70EE85C1
:104AD000FF8580818F70891708F02FCFD201119642
:104AE0008C91807EEBCF8B569C4FFC0190819F7008
:104AF000AE85BF858C918F70981708F41ECFF20198
:104B00008181807F803109F018CFCFCFF201818180
:104B1000807F803109F011CF0B5F1F4F0ECF10E067
:104B200000E0312C212C48E1488715CFF801ED56E3
:104B3000FC4F82818F7B82838F7091E009F490E03B
:104B4000892F81955CCF2091850330918603280FB2
:104B5000311D87FD3A95309386032093850389CCD8
:104B60002091870330918803280F311D87FD3A95E6
:104B700030938803209387037CCC833809F42BC1BE
:104B8000843809F46AC1823809F076CCEAE8F5E0A5
:104B90008AEA96E011928E179F07E1F7D12CC12C7B
:104BA000F601EE0FFF1FEC0DFD1DDF01AC56BC4FF3
:104BB0008C9182958F70843009F040C0ED56FC4F87
:104BC0009081292F229526952695237081818F70BB
:104BD000880F880F822B9F739093AA068093AB0651
:104BE0003CEAE32E36E0F32E662463945701F2E0AC
:104BF000AF1AB108D5017C906A94F70131975080C3
:104C000010E000E0E52C052C000CFF08872C912C0F
:104C100057FC49C0B701601B710BC4010E94801290
:104C200081FF41C0652D872D0E9435120F5F1F4FF8
:104C3000811139C05A94ECCF6110D8CF5FEFC51AFB
:104C4000D50A62E8C616D10409F0AACFF12CE12CEE
:104C50008701000F111F0E0D1F1DF801EC56FC4FB0
:104C6000808182958F70B9F00D561C4FD8018C91C0
:104C7000982F929596959695937011966C916F706A
:104C8000660F660F692B8F730E943512F8019281AF
:104C900080FB97F99283FFEFEF1AFF0A22E8E216F2
:104CA000F104B1F6E9CB812C1C8211E0150D7501E0
:104CB000312C212CA12E012E000CBB08BF86AE8604
:104CC000472C512C920121503109398B288B992482
:104CD0009A94970C98862E5F3F4F3B8B2A8B992492
:104CE0009394970C9C8610330CF0A6CFAE84BF84AF
:104CF000A20CB31CB501C2010E94801281FF9CCF9F
:104D0000612F872D0E943512082F811195CFC20186
:104D100020E3129F800D911D1124FC0123E0F595E5
:104D2000E7952A95E1F7E657FA4F8770992721E032
:104D300030E001C0220F8A95EAF78081822B8083C0
:104D4000B501888999890E948012912C81FF07C042
:104D5000612F88850E9435129924939498263C816E
:104D6000311128C0772049F1992051F0E885D70109
:104D7000EC9311961C93639497012E5F3F4F79013A
:104D8000B5018A899B890E94801281FFF1C6612F3B
:104D90008C850E9435128111EBC6882081F0082D88
:104DA0003EE23715B0F04FEF241A340A1F5F802E11
:104DB0009C8299CF31E07312E3CF912CE1CF8C84A8
:104DC000D7018C9211961C93639497012E5F3F4FED
:104DD000790101E0E8CF50E040E070E060E0F0E011
:104DE000E0E030E020E0C901880F991F820F931F97
:104DF000DC01AC56BC4FAC91A295AF70A23029F14A
:104E0000A330D9F0A13039F48B569C4FDC018C9142
:104E10008F70480F511D2F5F3F4F2238310519F712
:104E2000F0938603E0938503709388036093870370
:104E300050938403409383031FCB8B569C4FDC011C
:104E40008C918F70E80FF11DE6CF8B569C4FDC01E3
:104E50008C918F70680F711DDECF10923C01809194
:104E60003B018F5F80933B018C3008F4E1C01092CE
:104E70003B018091390190913A01019690933A015A
:104E8000809339018091830390918403880F991F47
:104E90002091870330918803820F931F41E1489F3F
:104EA0009001499F300D1124A0918203B0E00E942F
:104EB0001C2E24E630E040E050E00E94DB2D29016A
:104EC0003A014092890350928A0360928B03709258
:104ED0008C03C0903D01D0903E01E0903F01F090E6
:104EE0004001C40CD51CE61CF71C30E020E090E02B
:104EF00080E0FC01EE0FFF1FE80FF91FEC56FC4F9E
:104F0000408142954F70463009F01DC12F5F0196D8
:104F10008238910571F730938E0320938D0344E618
:104F2000349FC00111244C01990FAA08BB088C8240
:104F30009D82AE82BF82249F900111244901330FCC
:104F4000AA08BB0888869986AA86BB868C809D8025
:104F5000AE80BF80C818D908EA08FB088884998405
:104F6000AA84BB84C818D908EA08FB08C0923D018E
:104F7000D0923E01E0923F01F0924001912C812CB1
:104F800010E000E0B12CA12CB801C5010E948012F4
:104F900080FF03C02FEF821A920A3FEFA31AB30AD1
:104FA00040E3A416B10481F70F5F1F4F00331105D2
:104FB00049F7C4016AE070E00E943F2E70939003AD
:104FC00060938F03CB01B0E0A0E0C81AD90AEA0AC7
:104FD000FB0AC0923D01D0923E01E0923F01F09267
:104FE0004001481A590A6A0A7B0A88849984AA846B
:104FF000BB84481859086A087B088C809D80AE8065
:10500000BF80481859086A087B088091230580FFF3
:105010000AC014141504160417042CF41C141D04DF
:105020001E041F042CF086E08093220510922105B7
:1050300080912205833039F48091210581118DC042
:1050400082E08093220588E00E941A0C10E0811112
:1050500010E184E00E941A0C8111106280E80E9425
:105060001A0C8111146080E10E941A0C81111860E1
:1050700080E20E941A0C8111116080E40E941A0CD7
:105080008111126080913801811709F46AC0109271
:1050900037018095812319F0812F0E94F418109315
:1050A000380180901E058E8628E0829EA001112482
:1050B0004C53510980901F05888A68E0869E9001B4
:1050C00011242C51310980911A0590911B05DA01A8
:1050D000A81BB90BCD01B7FD0196959587954A019F
:1050E000881A990A9986888690921B0580921A05DB
:1050F00080911C0590911D055901A81AB90AC50196
:10510000B7FC0196959587952901481A590A50923E
:105110001D0540921C05B0902205BC822B2D253028
:1051200088F5223008F06CC1BB2009F4ECC02130B6
:1051300009F420C1809119058F5F8093190580E0E3
:105140000E94C50902C9473009F0E1CE3F5FDFCEBA
:105150000150110909F0A3C9FEC9815080932105AE
:1051600072CF809137018F5F809337018B3008F4C5
:1051700096CF812F0E94F41880913701825080933E
:1051800037018DCF3C81353009F4AAC4363091F611
:1051900000E028E344E665E08FE00E94371001E07C
:1051A00028E344E664E08EE00E94A11000E028E3DA
:1051B00044E664E08EE00E94371046E060E184EF50
:1051C00098E00E9420108091390190913A01009757
:1051D00009F4CBC48559984F46E068E50E94BB0F9F
:1051E0004FE060E18BED98E00E94201080918203F7
:1051F0004FE06CE590E00E94BB0F46E160E18BEC74
:1052000098E00E9420106091890370918A03809138
:105210008B0390918C0326E14CE60E941F0F4DE119
:1052200060E18FEB98E00E94201060918E0314E6FD
:10523000619FB0011124072E000C880B990B2DE102
:105240004CE60E941F0F44E260E181EB98E00E946F
:10525000201060918D03619FB0011124072E000C76
:10526000880B990B24E24CE60E941F0F4BE260E191
:1052700085EA98E00E94201060918F03709190035E
:1052800090E080E02BE24CE60E941F0F44E360E1D7
:105290008BE998E00E94201020918F0330919003B9
:1052A0006091890370918A0380918B0390918C03A4
:1052B000621B730B81099109C0908D03C19E60012F
:1052C00011240D2C000CEE08FF086C197D098E09C5
:1052D0009F0900918E03019F80011124012E000C73
:1052E000220B330B601B710B820B930B24E34CE6F8
:1052F0000E941F0F80912105803108F01BCF8F5F26
:105300008093210517CF01E020E440E860E080E0D1
:105310000E94A11000E028E248E461E08CE10E94D4
:10532000A11008E228E444E153E061E070E08CE180
:1053300090E00E940B096091210589E0689F602D33
:1053400011246B5D2AE04CE28AE20E94DC1047E205
:105350006CE28EE798E00E94201040E36CE287E860
:1053600098E00E94201049E360E283E093E00E940D
:105370002010E0CE01E020E440E860E080E00E9400
:10538000A11000E020E340E364E088E20E94A11065
:10539000809181034CE955E0813031F04CEB56E0CF
:1053A000823011F44CE754E000E320E364E070E065
:1053B00088E290E00E940B0900E024E344E362E00D
:1053C00086E20E943710809181038130B1F08230F3
:1053D00089F088EE97E049E364E30E9420104DE1F4
:1053E0006EE180EF97E00E9420104DE16EE58EEEB9
:1053F00097E0BDCF8CED97E0EECF81EE97E0EBCF5D
:105400008090240AE884F984F3E0F594E794FA950F
:10541000E1F7E818F10887FCF3948091230A282E1D
:10542000880F33083201A3E075946794AA95E1F7D9
:1054300062187308F7FE8AC040EFE4164FEFF406D7
:105440000CF481C0AA24BB24AE18BF088A1880922D
:10545000240A90E080E0A7014F5E5F4F8417950714
:105460009CF4EAE9F9E0E81BF90B30E020E0DF0109
:10547000AE0DBF1D6C9160832F5F3F4F7196293039
:105480003105A9F70196EACF0AE819E0082C000CCB
:105490009908B4016A5879404B016801F12CE12C5C
:1054A000C401800F911F9D878C87B701620D731D0A
:1054B0008C859D850E948013D6018C93BFEFEB1ADB
:1054C000FB0AE1E1CE0ED11CF9E0EF16F10469F719
:1054D0000F5F1F4FC8018A5899408A159B05ECF24F
:1054E00077FE39C238EF63163FEF73060CF430C213
:1054F00022243324261837080091230A0219009326
:10550000230A82E19AE021E1269DB001279D700DDA
:10551000112430E020E049E0640E711C26153705A7
:105520000CF065C0DB01A80FB91FFC0150E040E0A2
:105530001D9111934F5F5F4F41315105C9F72F5FA7
:105540003F4F4197EBCF0E946616CACFE114F1049A
:1055500039F221E1E216F104B4F7082D0E0D0093A3
:10556000240A8AE899E021E130E02E193F09AC01D4
:105570004A5859404217530784F4FC0150E040E078
:10558000DF01AE0DBF1D6C9160834F5F5F4F719661
:1055900049305105A9F70196EACF002E000C110BF6
:1055A000005F1F4FD12CC12CEAE98E2EE9E09E2E20
:1055B0008C189D08B12CA12CB501620D731DC8017A
:1055C0000E948013D4018C93BFEFAB1ABB0AE1E1B8
:1055D0008E0E911CF9E0AF16B10471F72FEFC21ACD
:1055E000D20A01501109CE14DF04F4F279CF7AE81F
:1055F000672E79E0772EF12CE12C002E000C110B98
:105600005301D12CC12C4701800E911E8091240A98
:10561000B401D601A80FB11D87FDBA95CD010E9436
:105620008013F50181935F01FFEFCF1ADF0A21E1BB
:10563000C216D10459F73FEFE31AF30A41E1640EB1
:10564000711C2E143F04E1F6809119058870D82E44
:1056500010E000E051E1C52EC801880F991FBC0180
:10566000600F711FFB01ED56FC4F2181322F307FFF
:1056700009F442C0303509F43FC0DB01AC56BC4FE1
:105680003C913039C8F53081432F4F7350E04F5F64
:105690005F4FE091240A4E1B5109E7FD53954131BC
:1056A000510550F532953695369533702F70220F8F
:1056B000220F232B30E02F5F3F4FE091230A2E1B58
:1056C0003109E7FD339529303105B0F4C29E7001F0
:1056D000C39EF00C11244E0D5F1DDA01A657B64F84
:1056E0007D01DD2009F495C16B567C4FFB012081C3
:1056F00027FD8FC1F0E3FC930F5F1F4F02381105A8
:1057000009F0AACF0885198507701127D12CC12C63
:10571000F12CE12C1201B7E02B223324310170E08F
:1057200060E0C6010E94561128E0829FF00111241A
:10573000E00FF11FE558F64FE491F0E0022C02C0B3
:10574000F595E7950A94E2F7EC87912C812CB12C22
:10575000A12C4C854170B501C7010E94270C3FEF79
:10576000631A730A47E0642277246114710409F410
:105770005BC15C8556955C879FEFA91AB90AA0E4C6
:10578000AA16B10431F70F5F1F4F077011270115DB
:10579000110519F4BFEFCB1ADB0AEFEFEE1AFE0A80
:1057A000F0E8EF16F10409F0B9CF2C81243009F4A8
:1057B00048C000912005033008F448C10250110B85
:1057C000AE014F5F5F4FBE016D5F7F4FC8010E940A
:1057D000FB0C85E0809F9001819F300D1124F90121
:1057E000EC50F84F449168E0469FA00111242B50E3
:1057F000384FF9012491F8E02F9F900111248B81FB
:1058000068E0869FC00111248884998488199909C9
:105810006981A8E06A9FB00111246419750997FD98
:1058200010C077FD0EC0FC01E40FF51FE038F10554
:1058300044F4FB01E20FF31FE034F10514F40E947D
:10584000DC1080912205843009F015C101E02AE0C6
:1058500047E766E380E00E94A11028E045E46FE29C
:1058600080E00E94A11001E010E030EFF32EB801BB
:105870008F2D0E94450CF394075F1F4FBDEFFB1265
:10588000F6CF109121052AE04AE066E389E0189FEF
:10589000802D11240E94DC10E12FF0E0EE0FFF1F9D
:1058A000E75DF74F8591949140E361E00E942010FD
:1058B000113009F4D4C008F4DBC065E070E01230A8
:1058C00009F4CFC01B3070F4EEEFE10F25E0E29F4A
:1058D000F0011124EE50F84F659174916115710536
:1058E00009F0BFC001E028E042E260E080E00E94F1
:1058F000A110E0913B01F0E0EE0FFF1FED5BF74FD1
:105900008591949141E061E00E94201080913901DD
:1059100090913A0141E061E18459984F0E94BB0F98
:1059200060913D0170913E0180913F019091400155
:1059300021E04BE70E941F0F880F880F42E0480FBD
:1059400028E060E09EE7981B892F0E943710F2CB79
:105950000E94661679CE6114710409F475CE59E07F
:1059600065167104ACF70091230A060D0093230A13
:105970008AE899E021E1269D7001279DF00C112411
:1059800030E020E049E050E0461957092417350778
:105990008CF4D701A80FB91FFC0170E060E01D91E5
:1059A00011936F5F7F4F61317105C9F72F5F3F4FD3
:1059B0004196ECCF62E1A62E6AE0B62E002E000CD6
:1059C000110B085F1F4FD12CC12C4501F12CE12C8C
:1059D0008091240AB801D701A80FB11D87FDBA959F
:1059E000CD010E948013F40181934F01FFEFEF1A64
:1059F000FF0A21E1E216F10459F73FEFC31AD30A77
:105A000041E1A41AB10801501109C614D704ECF2FF
:105A10001BCE800F911F41E061E08D569C4F0E948C
:105A20007F11D7018C9368CE6FEF861A960AB40166
:105A3000C6010E94561178E0879FF0011124E00F03
:105A4000F11FE558F64F84918C8796CE8E848B8219
:105A50009888998228E030E048E050E0D0CE6AE0B3
:105A600070E090E080E020E340E40E941F0F3ACF16
:105A700061E070E0F6CF833091F401E02AE04CE37E
:105A800066E383E20E94A1108091210582FF2ACF64
:105A900049E364E28BE598E00E94201023CF109147
:105AA0002005E12FF0E0EE0FFF1FE75DF74FE590D7
:105AB000F490C7010E94BC2D0396482F440F440F59
:105AC00001E02AE066E380E00E94A11061E070E05E
:105AD00080EF810F0E94450C49E36AE0C701DCCFEB
